{
  "contractName": "Test",
  "abi": [
    {
      "constant": true,
      "inputs": [
        {
          "name": "",
          "type": "uint256"
        }
      ],
      "name": "matches",
      "outputs": [
        {
          "name": "name",
          "type": "string"
        },
        {
          "name": "bet_amount",
          "type": "uint256"
        },
        {
          "name": "time_limit",
          "type": "uint256"
        },
        {
          "name": "description",
          "type": "string"
        },
        {
          "name": "winningOption",
          "type": "int8"
        },
        {
          "name": "start_time",
          "type": "uint256"
        },
        {
          "name": "time_before_deciding",
          "type": "uint256"
        },
        {
          "name": "total_money",
          "type": "uint256"
        },
        {
          "name": "num_players",
          "type": "uint256"
        }
      ],
      "payable": false,
      "stateMutability": "view",
      "type": "function",
      "signature": "0x4768d4ef"
    },
    {
      "inputs": [],
      "payable": false,
      "stateMutability": "nonpayable",
      "type": "constructor",
      "signature": "constructor"
    },
    {
      "constant": false,
      "inputs": [
        {
          "name": "_name",
          "type": "string"
        },
        {
          "name": "_description",
          "type": "string"
        },
        {
          "name": "_bet_amount",
          "type": "uint256"
        },
        {
          "name": "_time_limit",
          "type": "uint256"
        }
      ],
      "name": "match_init",
      "outputs": [],
      "payable": false,
      "stateMutability": "nonpayable",
      "type": "function",
      "signature": "0x2f3afef0"
    },
    {
      "constant": true,
      "inputs": [],
      "name": "matches_current",
      "outputs": [
        {
          "name": "",
          "type": "uint256[]"
        }
      ],
      "payable": false,
      "stateMutability": "view",
      "type": "function",
      "signature": "0xaa3fd114"
    },
    {
      "constant": true,
      "inputs": [
        {
          "name": "_match_Id",
          "type": "uint256"
        }
      ],
      "name": "check_played_match",
      "outputs": [
        {
          "name": "",
          "type": "bool"
        }
      ],
      "payable": false,
      "stateMutability": "view",
      "type": "function",
      "signature": "0xcf0538e1"
    },
    {
      "constant": true,
      "inputs": [],
      "name": "matches_wins",
      "outputs": [
        {
          "name": "",
          "type": "uint256[]"
        }
      ],
      "payable": false,
      "stateMutability": "view",
      "type": "function",
      "signature": "0xbf74d0d7"
    },
    {
      "constant": true,
      "inputs": [],
      "name": "matches_lost",
      "outputs": [
        {
          "name": "",
          "type": "uint256[]"
        }
      ],
      "payable": false,
      "stateMutability": "view",
      "type": "function",
      "signature": "0x0a34d016"
    },
    {
      "constant": false,
      "inputs": [
        {
          "name": "_option",
          "type": "int8"
        },
        {
          "name": "_match_Id",
          "type": "uint256"
        }
      ],
      "name": "vote_on_match",
      "outputs": [],
      "payable": true,
      "stateMutability": "payable",
      "type": "function",
      "signature": "0x0f9a0de8"
    },
    {
      "constant": false,
      "inputs": [
        {
          "name": "_match_Id",
          "type": "uint256"
        },
        {
          "name": "_winning_option",
          "type": "int8"
        }
      ],
      "name": "owner_vote",
      "outputs": [],
      "payable": false,
      "stateMutability": "nonpayable",
      "type": "function",
      "signature": "0xaf6c7aa6"
    }
  ],
  "bytecode": "0x608060405260006001553480156200001657600080fd5b5033600260006101000a81548173ffffffffffffffffffffffffffffffffffffffff021916908373ffffffffffffffffffffffffffffffffffffffff160217905550620000e16040805190810160405280600581526020017f46697273740000000000000000000000000000000000000000000000000000008152506040805190810160405280600b81526020017f4669727374204d617463680000000000000000000000000000000000000000008152506007601e620001f9640100000000026401000000009004565b6200016a6040805190810160405280600681526020017f5365636f6e6400000000000000000000000000000000000000000000000000008152506040805190810160405280600c81526020017f5365636f6e64204d6174636800000000000000000000000000000000000000008152506007601e620001f9640100000000026401000000009004565b620001f36040805190810160405280600581526020017f54686972640000000000000000000000000000000000000000000000000000008152506040805190810160405280600b81526020017f5468697264204d617463680000000000000000000000000000000000000000008152506007601e620001f9640100000000026401000000009004565b62000455565b6200020362000357565b610120604051908101604052808681526020018481526020018381526020018581526020017fffffffffffffffffffffffffffffffffffffffffffffffffffffffffffffffff60000b815260200142815260200162093a80815260200160008152602001600081525090506001600081548092919060010191905055506000819080600181540180825580915050906001820390600052602060002090600b0201600090919290919091506000820151816000019080519060200190620002cc929190620003a6565b5060208201518160010155604082015181600201556060820151816003019080519060200190620002ff929190620003a6565b5060808201518160040160006101000a81548160ff021916908360000b60ff16021790555060a0820151816005015560c0820151816006015560e0820151816007015561010082015181600801555050505050505050565b61012060405190810160405280606081526020016000815260200160008152602001606081526020016000800b8152602001600081526020016000815260200160008152602001600081525090565b828054600181600116156101000203166002900490600052602060002090601f016020900481019282601f10620003e957805160ff19168380011785556200041a565b828001600101855582156200041a579182015b8281111562000419578251825591602001919060010190620003fc565b5b5090506200042991906200042d565b5090565b6200045291905b808211156200044e57600081600090555060010162000434565b5090565b90565b6115d780620004656000396000f3fe60806040526004361061008e576000357c0100000000000000000000000000000000000000000000000000000000900463ffffffff1680630a34d016146100935780630f9a0de8146100ff5780632f3afef01461013a5780634768d4ef146102ad578063aa3fd11414610404578063af6c7aa614610470578063bf74d0d7146104b8578063cf0538e114610524575b600080fd5b34801561009f57600080fd5b506100a8610577565b6040518080602001828103825283818151815260200191508051906020019060200280838360005b838110156100eb5780820151818401526020810190506100d0565b505050509050019250505060405180910390f35b6101386004803603604081101561011557600080fd5b81019080803560000b9060200190929190803590602001909291905050506107ae565b005b34801561014657600080fd5b506102ab6004803603608081101561015d57600080fd5b810190808035906020019064010000000081111561017a57600080fd5b82018360208201111561018c57600080fd5b803590602001918460018302840111640100000000831117156101ae57600080fd5b91908080601f016020809104026020016040519081016040528093929190818152602001838380828437600081840152601f19601f8201169050808301925050505050505091929192908035906020019064010000000081111561021157600080fd5b82018360208201111561022357600080fd5b8035906020019184600183028401116401000000008311171561024557600080fd5b91908080601f016020809104026020016040519081016040528093929190818152602001838380828437600081840152601f19601f8201169050808301925050505050505091929192908035906020019092919080359060200190929190505050610a30565b005b3480156102b957600080fd5b506102e6600480360360208110156102d057600080fd5b8101908080359060200190929190505050610b88565b60405180806020018a8152602001898152602001806020018860000b60000b815260200187815260200186815260200185815260200184815260200183810383528c818151815260200191508051906020019080838360005b8381101561035a57808201518184015260208101905061033f565b50505050905090810190601f1680156103875780820380516001836020036101000a031916815260200191505b50838103825289818151815260200191508051906020019080838360005b838110156103c05780820151818401526020810190506103a5565b50505050905090810190601f1680156103ed5780820380516001836020036101000a031916815260200191505b509b50505050505050505050505060405180910390f35b34801561041057600080fd5b50610419610d22565b6040518080602001828103825283818151815260200191508051906020019060200280838360005b8381101561045c578082015181840152602081019050610441565b505050509050019250505060405180910390f35b34801561047c57600080fd5b506104b66004803603604081101561049357600080fd5b8101908080359060200190929190803560000b9060200190929190505050610e9b565b005b3480156104c457600080fd5b506104cd611277565b6040518080602001828103825283818151815260200191508051906020019060200280838360005b838110156105105780820151818401526020810190506104f5565b505050509050019250505060405180910390f35b34801561053057600080fd5b5061055d6004803603602081101561054757600080fd5b810190808035906020019092919050505061143d565b604051808215151515815260200191505060405180910390f35b6060806000805490506040519080825280602002602001820160405280156105ae5781602001602082028038833980820191505090505b509050600080905060008090505b60008054905081101561071257600080828154811015156105d957fe5b90600052602060002090600b0201600a0160003373ffffffffffffffffffffffffffffffffffffffff1673ffffffffffffffffffffffffffffffffffffffff16815260200190815260200160002060009054906101000a900460000b905060008281548110151561064657fe5b90600052602060002090600b020160040160009054906101000a900460000b60000b8160000b141580156106ca57507fffffffffffffffffffffffffffffffffffffffffffffffffffffffffffffffff6000838154811015156106a557fe5b90600052602060002090600b020160040160009054906101000a900460000b60000b14155b80156106d9575060008160000b135b15610704578184848151811015156106ed57fe5b906020019060200201818152505082806001019350505b5080806001019150506105bc565b506060816040519080825280602002602001820160405280156107445781602001602082028038833980820191505090505b509050600080905060008090505b838110156107a357848181518110151561076857fe5b90602001906020020151838381518110151561078057fe5b906020019060200201818152505081806001019250508080600101915050610752565b508194505050505090565b7fffffffffffffffffffffffffffffffffffffffffffffffffffffffffffffffff6000828154811015156107de57fe5b90600052602060002090600b020160040160009054906101000a900460000b60000b14801561087957506000808281548110151561081857fe5b90600052602060002090600b0201600a0160003373ffffffffffffffffffffffffffffffffffffffff1673ffffffffffffffffffffffffffffffffffffffff16815260200190815260200160002060009054906101000a900460000b60000b145b15610a2c578160008281548110151561088e57fe5b90600052602060002090600b0201600a0160003373ffffffffffffffffffffffffffffffffffffffff1673ffffffffffffffffffffffffffffffffffffffff16815260200190815260200160002060006101000a81548160ff021916908360000b60ff16021790555060008181548110151561090657fe5b90600052602060002090600b0201600101543414151561092557600080fd5b3360008281548110151561093557fe5b90600052602060002090600b02016009016000808481548110151561095657fe5b90600052602060002090600b020160080154815260200190815260200160002060006101000a81548173ffffffffffffffffffffffffffffffffffffffff021916908373ffffffffffffffffffffffffffffffffffffffff1602179055506000818154811015156109c357fe5b90600052602060002090600b020160080160008154809291906001019190505550346000828154811015156109f457fe5b90600052602060002090600b02016007015401600082815481101515610a1657fe5b90600052602060002090600b0201600701819055505b5050565b610a386114b7565b610120604051908101604052808681526020018481526020018381526020018581526020017fffffffffffffffffffffffffffffffffffffffffffffffffffffffffffffffff60000b815260200142815260200162093a80815260200160008152602001600081525090506001600081548092919060010191905055506000819080600181540180825580915050906001820390600052602060002090600b0201600090919290919091506000820151816000019080519060200190610aff929190611506565b5060208201518160010155604082015181600201556060820151816003019080519060200190610b30929190611506565b5060808201518160040160006101000a81548160ff021916908360000b60ff16021790555060a0820151816005015560c0820151816006015560e0820151816007015561010082015181600801555050505050505050565b600081815481101515610b9757fe5b90600052602060002090600b0201600091509050806000018054600181600116156101000203166002900480601f016020809104026020016040519081016040528092919081815260200182805460018160011615610100020316600290048015610c435780601f10610c1857610100808354040283529160200191610c43565b820191906000526020600020905b815481529060010190602001808311610c2657829003601f168201915b505050505090806001015490806002015490806003018054600181600116156101000203166002900480601f016020809104026020016040519081016040528092919081815260200182805460018160011615610100020316600290048015610ced5780601f10610cc257610100808354040283529160200191610ced565b820191906000526020600020905b815481529060010190602001808311610cd057829003601f168201915b5050505050908060040160009054906101000a900460000b908060050154908060060154908060070154908060080154905089565b606080600080549050604051908082528060200260200182016040528015610d595781602001602082028038833980820191505090505b509050600080905060008090505b600080549050811015610dff577fffffffffffffffffffffffffffffffffffffffffffffffffffffffffffffffff600082815481101515610da457fe5b90600052602060002090600b020160040160009054906101000a900460000b60000b1415610df257808383815181101515610ddb57fe5b906020019060200201818152505081806001019250505b8080600101915050610d67565b50606081604051908082528060200260200182016040528015610e315781602001602082028038833980820191505090505b509050600080905060008090505b83811015610e90578481815181101515610e5557fe5b906020019060200201518383815181101515610e6d57fe5b906020019060200201818152505081806001019250508080600101915050610e3f565b508194505050505090565b600260009054906101000a900473ffffffffffffffffffffffffffffffffffffffff1673ffffffffffffffffffffffffffffffffffffffff163373ffffffffffffffffffffffffffffffffffffffff16141515610ef757600080fd5b80600083815481101515610f0757fe5b90600052602060002090600b020160040160006101000a81548160ff021916908360000b60ff160217905550600080905060008090505b600084815481101515610f4d57fe5b90600052602060002090600b02016008015481101561107157600084815481101515610f7557fe5b90600052602060002090600b020160040160009054906101000a900460000b60000b600085815481101515610fa657fe5b90600052602060002090600b0201600a0160008087815481101515610fc757fe5b90600052602060002090600b0201600901600085815260200190815260200160002060009054906101000a900473ffffffffffffffffffffffffffffffffffffffff1673ffffffffffffffffffffffffffffffffffffffff1673ffffffffffffffffffffffffffffffffffffffff16815260200190815260200160002060009054906101000a900460000b60000b14156110645781806001019250505b8080600101915050610f3e565b5060008160008581548110151561108457fe5b90600052602060002090600b02016007015481151561109f57fe5b04905060008090505b6000858154811015156110b757fe5b90600052602060002090600b020160080154811015611270576000858154811015156110df57fe5b90600052602060002090600b020160040160009054906101000a900460000b60000b60008681548110151561111057fe5b90600052602060002090600b0201600a016000808881548110151561113157fe5b90600052602060002090600b0201600901600085815260200190815260200160002060009054906101000a900473ffffffffffffffffffffffffffffffffffffffff1673ffffffffffffffffffffffffffffffffffffffff1673ffffffffffffffffffffffffffffffffffffffff16815260200190815260200160002060009054906101000a900460000b60000b141561126357600080868154811015156111d557fe5b90600052602060002090600b0201600901600083815260200190815260200160002060009054906101000a900473ffffffffffffffffffffffffffffffffffffffff1690508073ffffffffffffffffffffffffffffffffffffffff166108fc849081150290604051600060405180830381858888f19350505050158015611260573d6000803e3d6000fd5b50505b80806001019150506110a8565b5050505050565b6060806000805490506040519080825280602002602001820160405280156112ae5781602001602082028038833980820191505090505b509050600080905060008090505b6000805490508110156113a1576000818154811015156112d857fe5b90600052602060002090600b020160040160009054906101000a900460000b60000b60008281548110151561130957fe5b90600052602060002090600b0201600a0160003373ffffffffffffffffffffffffffffffffffffffff1673ffffffffffffffffffffffffffffffffffffffff16815260200190815260200160002060009054906101000a900460000b60000b14156113945780838381518110151561137d57fe5b906020019060200201818152505081806001019250505b80806001019150506112bc565b506060816040519080825280602002602001820160405280156113d35781602001602082028038833980820191505090505b509050600080905060008090505b838110156114325784818151811015156113f757fe5b90602001906020020151838381518110151561140f57fe5b9060200190602002018181525050818060010192505080806001019150506113e1565b508194505050505090565b60008060008381548110151561144f57fe5b90600052602060002090600b0201600a0160003373ffffffffffffffffffffffffffffffffffffffff1673ffffffffffffffffffffffffffffffffffffffff16815260200190815260200160002060009054906101000a900460000b60000b14159050919050565b61012060405190810160405280606081526020016000815260200160008152602001606081526020016000800b8152602001600081526020016000815260200160008152602001600081525090565b828054600181600116156101000203166002900490600052602060002090601f016020900481019282601f1061154757805160ff1916838001178555611575565b82800160010185558215611575579182015b82811115611574578251825591602001919060010190611559565b5b5090506115829190611586565b5090565b6115a891905b808211156115a457600081600090555060010161158c565b5090565b9056fea165627a7a72305820f55562f26d544f1ce1f6b2f6b361fb6ffd24d95b2a48afd1c26420f81008705d0029",
  "source": "pragma solidity >=0.4.25 <0.6.0;\n\ncontract Test {\n\n\tMatch[] public matches;\n\tuint matchCount = 0;\n\taddress owner;\n\n\tstruct Match {\n\t\tstring name;\n\t\tuint bet_amount;\n\t\tuint time_limit;\n\t\tstring description;\n \t\tint8 winningOption;\n \t\tuint start_time;\n \t\tuint time_before_deciding;\n \t\tuint total_money;\n \t\tuint num_players;\n \t\tmapping(uint => address payable) playerID;\n \t\tmapping(address => int8) choice; //initializes to 0, so a user can choose either 1 or 2\n\t}\n\n\tconstructor() public {\n\t\towner = msg.sender;\n\t\tmatch_init(\"First\", \"First Match\", 7, 30);\n\t\tmatch_init(\"Second\", \"Second Match\", 7, 30);\n\t\tmatch_init(\"Third\", \"Third Match\", 7, 30);\n\t}\t\n\n\tmodifier isOwner {\n\t\trequire(msg.sender == owner);\n\t\t_;\n\t}\n\n\tfunction match_init(string memory _name, string memory _description, uint _bet_amount, uint _time_limit) public {\n\t\tMatch memory _m = Match(_name, _bet_amount, _time_limit, _description, -1, now, 24 hours * 7, 0, 0);\n\t\tmatchCount++;\n\t\tmatches.push(_m);\n\t}\n\n\tfunction matches_current() public view returns (uint[] memory) {\n\t\tuint[] memory _ids = new uint[](matches.length);\n\t\tuint counter = 0;\n\n\t\tfor(uint i = 0; i < matches.length; i++){\n\t\t\tif(matches[i].winningOption == -1){\n\t\t\t\t_ids[counter] = i;\n\t\t\t\tcounter++;\n\t\t\t}\n\t\t}\n\n\t\tuint[] memory _result_ids = new uint[](counter);\n\t\tuint _result_counter = 0;\n\n\t\tfor(uint i = 0; i < counter; i++){\n\t\t\t_result_ids[_result_counter] = _ids[i];\n\t\t\t_result_counter++;\n\t\t}\n\n\t\treturn (_result_ids);\n\t}\n\n\tfunction check_played_match(uint _match_Id) public view returns(bool) {\n\t\t// just to minimize the function\n\t\treturn !(matches[_match_Id].choice[msg.sender] == 0);\n\t}\n\n\tfunction matches_wins() public view returns (uint[] memory) {\n\t\tuint[] memory _ids = new uint[](matches.length);\n\t\tuint counter = 0;\n\n\t\tfor(uint i = 0; i < matches.length; i++){\n\t\t\tif(matches[i].choice[msg.sender] == matches[i].winningOption){\n\t\t\t\t_ids[counter] = i;\n\t\t\t\tcounter++;\n\t\t\t}\n\t\t}\n\n\t\tuint[] memory _result_ids = new uint[](counter);\n\t\tuint _result_counter = 0;\n\n\t\tfor(uint i = 0; i < counter; i++){\n\t\t\t_result_ids[_result_counter] = _ids[i];\n\t\t\t_result_counter++;\n\t\t}\n\n\t\treturn (_result_ids);\n\t}\n\n\tfunction matches_lost() public view returns (uint[] memory) {\n\t\tuint[] memory _ids = new uint[](matches.length);\n\t\tuint counter = 0;\n\n\t\tfor(uint i = 0; i < matches.length; i++){\n\t\t\tint8 _player_choice = matches[i].choice[msg.sender];\n\t\t\tif(_player_choice != matches[i].winningOption && matches[i].winningOption != -1 && _player_choice > 0){\n\t\t\t\t_ids[counter] = i;\n\t\t\t\tcounter++;\n\t\t\t}\n\t\t}\n\n\t\tuint[] memory _result_ids = new uint[](counter);\n\t\tuint _result_counter = 0;\n\n\t\tfor(uint i = 0; i < counter; i++){\n\t\t\t_result_ids[_result_counter] = _ids[i];\n\t\t\t_result_counter++;\n\t\t}\n\n\t\treturn (_result_ids);\n\t}\n\n\t// You also have to change the payable amount to wei instead of just using ether\n\t// You likely have to do asynchronous calls for this one since you are sending in a match\n\tfunction vote_on_match(int8 _option, uint _match_Id) public payable {\n\t\tif(matches[_match_Id].winningOption == -1 && matches[_match_Id].choice[msg.sender] == 0){\n\t\t\tmatches[_match_Id].choice[msg.sender] = _option;\n\t\t\trequire (msg.value == matches[_match_Id].bet_amount);\n\t\t\tmatches[_match_Id].playerID[matches[_match_Id].num_players] = msg.sender;\n\t\t\tmatches[_match_Id].num_players++;\n\t\t\tmatches[_match_Id].total_money = matches[_match_Id].total_money + msg.value;\n\t\t}\n\t}\n\n\tfunction owner_vote(uint _match_Id, int8 _winning_option) public isOwner {\n\t\tmatches[_match_Id].winningOption = _winning_option;\n\t\tuint _num_winners = 0;\n\n\t\tfor(uint i = 0; i < matches[_match_Id].num_players; i++){\n\t\t\tif(matches[_match_Id].choice[matches[_match_Id].playerID[i]] == matches[_match_Id].winningOption){\n\t\t\t\t_num_winners++;\n\t\t\t}\n\t\t}\n\n\t\tuint _money_winning = matches[_match_Id].total_money / _num_winners;\n\n\t\tfor(uint i = 0; i < matches[_match_Id].num_players; i++){\n\t\t\tif(matches[_match_Id].choice[matches[_match_Id].playerID[i]] == matches[_match_Id].winningOption){\n\t\t\t\taddress payable curr_address = matches[_match_Id].playerID[i];\n\t\t\t\tcurr_address.transfer(_money_winning);\n\t\t\t}\n\t\t}\n\t}\n}",
  "sourcePath": "/Users/ricky/Desktop/solidity/Three_Betrs/contracts/Test.sol",
  "compiler": {
    "name": "solc",
    "version": "0.5.0+commit.1d4f565a.Emscripten.clang"
  },
  "schemaVersion": "3.0.0",
  "updatedAt": "2019-01-03T22:47:24.779Z",
  "devdoc": {
    "methods": {}
  },
  "userdoc": {
    "methods": {}
  }
}